:100000000C9446000C9463000C94E1000C94630083
:100010000C9463000C9463000C9463000C946300D4
:100020000C9463000C9463000C9463000C946300C4
:100030000C9463000C9463000C9463000C946300B4
:100040000C9463000C9463000C9463000C946300A4
:100050000C9463000C9463000C9463000C94630094
:100060000C9463000C946300960398039A039C031A
:100070009E0392039403130415041C041E04290414
:100080003F044D045C0461040B040F0411241FBEE3
:10009000CFEFD8E0DEBFCDBF12E0A0E0B1E0EAE1F3
:1000A000F0E102C005900D92A831B107D9F722E026
:1000B000A8E1B2E001C01D92A33AB207E1F70E94A5
:1000C000C6070C940B080C94000085E08093810017
:1000D0001092850010928400089584E08093690056
:1000E000E99A089580918400909185008932910564
:1000F00078F010921B0210921A02109219021092BC
:10010000180280911A0290911B02809731F1089594
:10011000429708F442C08091180290911902880F0A
:10012000991F909319028093180280911802909160
:1001300019028160909319028093180280911A022B
:1001400090911B02019690931B0280931A0280915A
:100150001A0290911B028097D1F68091180290911B
:1001600019022091180230911902809590959927D3
:10017000232F33278217930751F68091180290910D
:100180001902892F992790931E0280931D02809156
:100190001F02806880931F02089580911802909139
:1001A0001902880F991F9093190280931802809169
:1001B0001A0290911B02019690931B0280931A02DF
:1001C000A0CF1F920F920FB60F9211242F933F933F
:1001D0004F935F936F937F938F939F93AF93BF934F
:1001E000EF93FF934B9B15C01092850010928400F3
:1001F000FF91EF91BF91AF919F918F917F916F91FF
:100200005F914F913F912F910F900FBE0F901F90D4
:1002100018950E947200ECCFCF92DF92EF92FF927E
:100220001F93CF93DF936623A9F190E2899F60012A
:1002300011240D2C000CEE08FF08162FC1E0D0E0B1
:10024000C701B6010E94A407E0910101F0910201EB
:1002500092819E010090000102C0220F331F0A9478
:10026000E2F7822F809589238283C701B6010E941D
:10027000A407E0910101F09102012281CE010090DA
:10028000000102C0880F991F0A94E2F7822B828333
:100290001150B1F6DF91CF911F91FF90EF90DF9059
:1002A000CF9008956DE288EC0C940C0160E884E135
:1002B0000C940C0160E880E10C940C012F923F92A9
:1002C0004F925F926F927F928F929F92AF92BF9266
:1002D000CF92DF92EF92FF920F931F93CF93DF9312
:1002E000E0E2F0E0412CD0E0C0E010E000E0B12C12
:1002F000A12C912C812C512CC12CD12CE12C30E83B
:10030000F32E742C770C2D2F30E0A9014D5F5E4F3A
:10031000DA014C91472C442A4C2F50E0235F3E4F8A
:10032000DA01AD5FBE4FE90138812C91D32FD22B7A
:10033000212F30E0DA01A35FBE4FA9014D5F5E4F70
:10034000CC91DA014C91C42B402F50E0235F3E4FFB
:100350008A010D5F1E4FD9013C91D8012C91132FBA
:10036000122B2B2D30E0435F5E4FD901AD5FBE4FA6
:100370003D01DA010C91D3014C91042B4A2D50E040
:10038000235F3E4FDA01AD5FBE4F5D01D9013C9165
:10039000D5012C91B32EB22A292D30E0435F5E4F58
:1003A000D901AD5FBE4F3D01DA01AC90D3014C9154
:1003B000A42A482D50E0235F3E4FDA01AD5FBE4FC7
:1003C0004D01D9013C91D4012C91932E922A252DD7
:1003D00030E0435F5E4FD901AD5FBE4F3D01DA01B2
:1003E0008C90D3014C91842A235F3E4FD9015C90BD
:1003F0009B01AC012C213D214E215F21232B242B7D
:10040000252B19F0B52DB1605B2EF694E794D794A7
:10041000C794319709F075CF842D80630E94BF0780
:100420008D2F80630E94BF078C2F80630E94BF07BF
:10043000812F80630E94BF07802F80630E94BF07C7
:100440008B2D80630E94BF078A2D80630E94BF07A7
:10045000892D80630E94BF07882D80630E94BF079B
:10046000852D8063DF91CF911F910F91FF90EF90C9
:10047000DF90CF90BF90AF909F908F907F906F90C4
:100480005F904F903F902F900C94BF07CF92DF92D8
:10049000EF92FF920F931F93CF93DF936C01E0E1F4
:1004A000F0E080E010E000E0D0E0C0E060E070E864
:1004B000880F412F50E09A012D5F3E4FD9019C914A
:1004C000892B202F30E0435F5E4FD901AD5FBE4FD7
:1004D0007D01DA011C91D7019C91192B4D2F50E021
:1004E000235F3E4FDA01AD5FBE4F7D01D9012C91F4
:1004F000D7019C91022F092B2C2F30E0435F5E4FD8
:10050000E901CD5FDE4FDA014C919881D42FD92BD0
:10051000235F3E4FD901CC91960126233723232B0D
:1005200009F0C16076956795319711F680630E9456
:10053000BF07812F80630E94BF07802F80630E94C6
:10054000BF078D2F80630E94BF078C2F8063DF91D0
:10055000CF911F910F91FF90EF90DF90CF900C946F
:10056000BF07CF93DF9397FD04C0DF91CF910C9429
:100570004602EC018DE20E94BF07882799278C1B59
:100580009D0BDF91CF910C944602CF93DF93782F90
:10059000E8E0F0E080E0C0E0D0E060E8880F2C2FD9
:1005A00030E0D901AD5FBE4F9C91892B4D2F50E0BB
:1005B000E901C35FDE4FDA01AD5FBE4F28819C9138
:1005C000C22FC92BDA01A35FBE4FDC91972F962370
:1005D00009F0D1606695319709F780630E94BF07E3
:1005E0008C2F80630E94BF078D2F8063DF91CF9196
:1005F0000C94BF07CF93DF9397FD04C0DF91CF9199
:100600000C94C502EC018DE20E94BF078C2F8195EE
:10061000DF91CF910C94C502CF93982F92959F7044
:1006200020E3290F2A3310F027E3290F982F9F701A
:10063000C0E3C90FCA3310F0C7E3C90F822F0E946D
:10064000BF078C2FCF910C94BF07CF93C82F892F52
:100650000E940C038C2FCF910C940C031F93CF930B
:10066000DF93EB01182F892F0E940C03812F0E942A
:100670000C038D2F0E940C038C2FDF91CF911F91C3
:100680000C940C03CF93DF93EC018881882331F025
:1006900021960E94BF0789918111FBCFDF91CF91F5
:1006A0000895E0912002F0E0EE0FFF1FEF5DFD4F97
:1006B00081830C945A0190912002E92FF0E0EE0F13
:1006C000FF1FEF5DFD4F21813AE0239F800D112434
:1006D00081839F5F909320020C945A01E1E2F2E043
:1006E00011821082329682E0E13AF807C9F710923F
:1006F00020020895E0912002F0E0EE0FFF1FEF5D71
:10070000FD4F108211820895E82F862F4E2F50E062
:10071000FA013197E730F10508F00895EC5CFF4FDE
:100720000C94EB070C946C070C941D070C94430578
:100730000C94B7050C942B060C94A1060C9413078B
:10074000E0912002EE2349F0F0E0EE0FFF1FE15EA2
:10075000FD4F618180810C9484030C945201CF93EE
:100760001092200280912102882321F120E030E0C4
:1007700090E0C0E012C0CC23F9F090912002C1E0DB
:100780009F5F90932002292F30E0F901EE0FFF1FA9
:10079000EF5DFD4F8081882369F0883061F3220F7F
:1007A000331FF901EF5DFD4F61810E948403909139
:1007B0002002E6CFCF910895220F331FF901EF5D9C
:1007C000FD4F8181981718F0981BC1E0D9CF892F70
:1007D000981BC1E0D5CF20911C0290E2299F900187
:1007E0001124E82FEF712E2BE22FF0E0E95EFE4F8F
:1007F0004081942F92959F7090931C02E42FEF708C
:100800004E2F50E04B30510508F00895FA01E55C99
:10081000FF4F0C94EB070E9456010C94A0030E941A
:1008200056010C94AF030C945201909120029F5FEB
:10083000909320020C946A040C946A04E0912002C4
:10084000F0E0EE0FFF1FEF5DFD4F8D5081830C94A4
:100850005A0130912002E32FF0E0EE0FFF1FEF5D11
:10086000FD4F9181990F292F220F220F920F9D503A
:10087000890F81833F5F309320020C945A010E94BC
:100880005601E1E2F2E011821082329682E0E13A12
:10089000F807C9F71092200208950E945601E091CE
:1008A0002002E150E0932002F0E0EE0FFF1FEF5D29
:1008B000FD4F1082118208950E945601E09120029E
:1008C000F3CF0E945601809120028F5F8093200217
:1008D0000C94A003E0912002E03441F0F0E0EE0F30
:1008E000FF1FEF5DFD4F80830C94560187E10C9450
:1008F000EB03823709F478C088F0803B09F45EC0CE
:10090000E8F4823909F45DC0B0F5803809F453C0C9
:10091000883809F064C082E00C94EB03883109F454
:1009200066C0B8F0883409F440C0F0F4803289F130
:10093000803409F054C080E10C94EB03883CC1F191
:1009400008F5883B49F1803C09F049C081E10C94ED
:10095000EB03823009F445C0E8F18830A9F1803119
:10096000F1F586E10C94EB038835E1F08036B9F5BA
:1009700084E10C94EB03803A91F0823A81F585E0B2
:100980000C94EB03803D19F1803E49F585E10C9410
:10099000EB0382E10C94EB0387E00C94EB0383E11F
:1009A0000C94EB038CE00C94EB0383E00C94EB03CE
:1009B00084E00C94EB038FE00C94EB0386E00C9442
:1009C000EB0389E00C94EB0381E00C94EB038DE0E6
:1009D0000C94EB03811103C08EE00C94EB030C9498
:1009E00052018AE00C94EB038BE00C94EB0388E05B
:1009F0000C94EB03AAE9B1E01196ED91FC911297EA
:100A0000328181E090E0AC010C9002C0440F551F90
:100A10000A94E2F7242F209523232283A0EAB1E051
:100A20001196ED91FC9112973281AC010C9002C0AD
:100A3000440F551F0A94E2F7242F20952323228385
:100A4000A7E9B1E01196ED91FC9112973281AC01CA
:100A50000C9002C0440F551F0A94E2F7242F2095F2
:100A600023232283ADE9B1E01196ED91FC91129719
:100A700022810C9002C0880F991F0A94E2F780959A
:100A80008223828308951F93CF93DF93182F8823A7
:100A900009F469C050919A014091A001C1E0D0E0F1
:100AA000E0919801F091990192819E010090970147
:100AB00002C0220F331F0A94E2F7822F8095892308
:100AC0008283E0919E01F0919F012281CE010090EE
:100AD0009D0102C0880F991F0A94E2F7822B82833E
:100AE000E0919B01F0919C012281CE0101C0880F11
:100AF0005A95EAF7822B8283E091A101F091A2013D
:100B00002281CE0101C0880F4A95EAF7822B8283A9
:100B100060E17FEA83E190E00E94A407E0919B01FD
:100B2000F0919C01928150919A019E01052E01C085
:100B3000220F0A94EAF7822F809589238283E0911D
:100B4000A101F091A20192814091A0019E01042E89
:100B500001C0220F0A94EAF7822F809589238283AD
:100B6000115009F09DCFDF91CF911F9108951F93F0
:100B7000CF93DF93182F882309F469C050919A010D
:100B80004091A001C1E0D0E0E0919801F09199017D
:100B90002281CE010090970102C0880F991F0A940C
:100BA000E2F7822B8283E0919E01F0919F01928176
:100BB0009E0100909D0102C0220F331F0A94E2F7AC
:100BC000822F809589238283E0919B01F0919C0183
:100BD0002281CE0101C0880F5A95EAF7822B8283C9
:100BE000E091A101F091A2012281CE0101C0880F04
:100BF0004A95EAF7822B828360E17FEA83E190E005
:100C00000E94A407E0919B01F0919C019281509178
:100C10009A019E01052E01C0220F0A94EAF7822F45
:100C2000809589238283E091A101F091A2019281B4
:100C30004091A0019E01042E01C0220F0A94EAF700
:100C4000822F809589238283115009F09DCFDF91F7
:100C5000CF911F9108951F93CF93DF93182F88236F
:100C600009F46BC050919A014091A001C1E0D0E01D
:100C7000E0919801F091990192819E010090970175
:100C800002C0220F331F0A94E2F7822F8095892336
:100C90008283E0919E01F0919F0192819E010090DC
:100CA0009D0102C0220F331F0A94E2F7822F809524
:100CB00089238283E0919B01F0919C012281CE01E6
:100CC00001C0880F5A95EAF7822B8283E091A10137
:100CD000F091A2012281CE0101C0880F4A95EAF766
:100CE000822B82836BE674E081E090E00E94A4078F
:100CF000E0919B01F0919C01928150919A019E019B
:100D0000052E01C0220F0A94EAF7822F80958923CD
:100D10008283E091A101F091A20192814091A00112
:100D20009E01042E01C0220F0A94EAF7822F8095BB
:100D300089238283115009F09BCFDF91CF911F91BE
:100D400008951F93CF93DF93182F882309F467C06A
:100D500050919A014091A001C1E0D0E0E09198014A
:100D6000F09199012281CE010090970102C0880F75
:100D7000991F0A94E2F7822B8283E0919E01F09101
:100D80009F012281CE0100909D0102C0880F991F12
:100D90000A94E2F7822B8283E0919B01F0919C01FF
:100DA0002281CE0101C0880F5A95EAF7822B8283F7
:100DB000E091A101F091A2012281CE0101C0880F32
:100DC0004A95EAF7822B82836BE674E081E090E03B
:100DD0000E94A407E0919B01F0919C0192815091A7
:100DE0009A019E01052E01C0220F0A94EAF7822F74
:100DF000809589238283E091A101F091A2019281E3
:100E00004091A0019E01042E01C0220F0A94EAF72E
:100E1000822F809589238283115009F09FCFDF9123
:100E2000CF911F910895A82FB0E028EE3EE643E051
:100E300050E00E94F1070C94A407CF92DF92EF924A
:100E4000FF920F931F93CF93DF93CDB7DEB7C056BA
:100E5000D1090FB6F894DEBF0FBECDBF80E3E6EA3E
:100E6000F1E0DE01D19601900D928A95E1F780E3E1
:100E7000E6EDF1E0DE01119601900D928A95E1F721
:100E80008E010F5F1F4F7E0181E3E80EF11C6701A9
:100E9000F80160810E5F1F4FF7018081F2E0EF0ED5
:100EA000F11C660F660F962F990F990F690F0E941C
:100EB0000C010C151D0561F7C05ADF4F0FB6F894F1
:100EC000DEBF0FBECDBFDF91CF911F910F91FF907D
:100ED000EF90DF90CF9008951F93CF93DF9314E0AE
:100EE000C1E0D0E0E091A401F091A5012281CE0102
:100EF0000090A30102C0880F991F0A94E2F7822B89
:100F0000828360E070E082E090E00E94A407E091BC
:100F1000A401F091A50192819E010090A30102C05D
:100F2000220F331F0A94E2F7822F80958923828350
:100F300060E070E082E090E00E94A407115091F61A
:100F4000DF91CF911F91089505C000006150710994
:100F5000810991096115710581059105B1F7089520
:100F60009093C5008093C40088E18093C1000895E8
:100F70008091C00087FFFCCF8091C60008959091BA
:100F8000C00095FFFCCF8093C600089582E284B92B
:100F90001AB88FE087B98FEF8BB90E94FA0483E308
:100FA00090E00E94B0070E9465000E946D001092C0
:100FB0001F02789486E092E00E94420380911F0213
:100FC0008823E1F380911D0290911E0210921F026E
:100FD0000E947904F3CFEE0FFF1F0590F491E02DEE
:100FE00009940E94FC07A59F900DB49F900DA49FAB
:100FF000800D911D11240895A29FB001B39FC001DF
:10100000A39F700D811D1124911DB29F700D811D34
:0A1010001124911D0895F894FFCFFC
:10101A000123000000000000010101010100020497
:10102A000608000204060800121212121212121204
:10103A000506090A00000000000000000000300058
:10104A000000000000000010101010101010101006
:10105A0005061010232323232323232323233010BD
:10106A00101010101010102011111111111111115E
:10107A000507080A040404040404040404043020D0
:10108A0020202020202020303030303030303030C6
:10109A000506090A303030303030303030303030E8
:1010AA00303030303030300226000326000026006F
:1010BA000126000523001E001E0026002D002D001B
:1010CA002200220022001B001B0019001600190032
:1010DA0019001900220026001E001E001E00220010
:1010EA0022001E0022000800080008000400040074
:1010FA0004000400050008000800080008000800B1
:10110A0008000800040004000400040005000800A8
:10111A0008000800080048656C6C6F207465726DE1
:08112A00696E616C2E0D0000DE
:00000001FF
